{
  "_format": "hh-sol-artifact-1",
  "contractName": "FurnitureStore",
  "sourceName": "contracts/smart-contract.sol",
  "abi": [
    {
      "inputs": [],
      "stateMutability": "nonpayable",
      "type": "constructor"
    },
    {
      "anonymous": false,
      "inputs": [
        {
          "indexed": false,
          "internalType": "uint256",
          "name": "id",
          "type": "uint256"
        },
        {
          "indexed": false,
          "internalType": "string",
          "name": "name",
          "type": "string"
        },
        {
          "indexed": false,
          "internalType": "uint256",
          "name": "price",
          "type": "uint256"
        },
        {
          "indexed": false,
          "internalType": "address",
          "name": "seller",
          "type": "address"
        }
      ],
      "name": "ItemCreated",
      "type": "event"
    },
    {
      "anonymous": false,
      "inputs": [
        {
          "indexed": false,
          "internalType": "uint256",
          "name": "id",
          "type": "uint256"
        },
        {
          "indexed": false,
          "internalType": "string",
          "name": "name",
          "type": "string"
        },
        {
          "indexed": false,
          "internalType": "uint256",
          "name": "price",
          "type": "uint256"
        },
        {
          "indexed": false,
          "internalType": "address",
          "name": "seller",
          "type": "address"
        }
      ],
      "name": "ItemModified",
      "type": "event"
    },
    {
      "anonymous": false,
      "inputs": [
        {
          "indexed": false,
          "internalType": "uint256",
          "name": "id",
          "type": "uint256"
        },
        {
          "indexed": false,
          "internalType": "string",
          "name": "name",
          "type": "string"
        },
        {
          "indexed": false,
          "internalType": "uint256",
          "name": "price",
          "type": "uint256"
        },
        {
          "indexed": false,
          "internalType": "address",
          "name": "seller",
          "type": "address"
        },
        {
          "indexed": false,
          "internalType": "address",
          "name": "buyer",
          "type": "address"
        }
      ],
      "name": "ItemSold",
      "type": "event"
    },
    {
      "inputs": [
        {
          "internalType": "uint256",
          "name": "_id",
          "type": "uint256"
        }
      ],
      "name": "buyItem",
      "outputs": [],
      "stateMutability": "payable",
      "type": "function"
    },
    {
      "inputs": [
        {
          "internalType": "string",
          "name": "_name",
          "type": "string"
        },
        {
          "internalType": "uint256",
          "name": "_price",
          "type": "uint256"
        }
      ],
      "name": "createItem",
      "outputs": [],
      "stateMutability": "nonpayable",
      "type": "function"
    },
    {
      "inputs": [],
      "name": "getAllItems",
      "outputs": [
        {
          "components": [
            {
              "internalType": "uint256",
              "name": "id",
              "type": "uint256"
            },
            {
              "internalType": "string",
              "name": "name",
              "type": "string"
            },
            {
              "internalType": "uint256",
              "name": "price",
              "type": "uint256"
            },
            {
              "internalType": "address payable",
              "name": "seller",
              "type": "address"
            },
            {
              "internalType": "address payable",
              "name": "buyer",
              "type": "address"
            },
            {
              "internalType": "bool",
              "name": "exists",
              "type": "bool"
            }
          ],
          "internalType": "struct FurnitureStore.Item[]",
          "name": "",
          "type": "tuple[]"
        }
      ],
      "stateMutability": "view",
      "type": "function"
    },
    {
      "inputs": [],
      "name": "itemCount",
      "outputs": [
        {
          "internalType": "uint256",
          "name": "",
          "type": "uint256"
        }
      ],
      "stateMutability": "view",
      "type": "function"
    },
    {
      "inputs": [
        {
          "internalType": "uint256",
          "name": "",
          "type": "uint256"
        }
      ],
      "name": "items",
      "outputs": [
        {
          "internalType": "uint256",
          "name": "id",
          "type": "uint256"
        },
        {
          "internalType": "string",
          "name": "name",
          "type": "string"
        },
        {
          "internalType": "uint256",
          "name": "price",
          "type": "uint256"
        },
        {
          "internalType": "address payable",
          "name": "seller",
          "type": "address"
        },
        {
          "internalType": "address payable",
          "name": "buyer",
          "type": "address"
        },
        {
          "internalType": "bool",
          "name": "exists",
          "type": "bool"
        }
      ],
      "stateMutability": "view",
      "type": "function"
    },
    {
      "inputs": [
        {
          "internalType": "uint256",
          "name": "_id",
          "type": "uint256"
        },
        {
          "internalType": "uint256",
          "name": "_price",
          "type": "uint256"
        }
      ],
      "name": "modifyItem",
      "outputs": [],
      "stateMutability": "nonpayable",
      "type": "function"
    }
  ],
  "bytecode": "0x608060405234801561001057600080fd5b506000600181905550611785806100286000396000f3fe6080604052600436106100555760003560e01c80632e6788ef1461005a5780634ba1d6aa146100835780636bfb0d01146100ae5780638c551742146100d9578063bfb231d214610102578063e7fb74c714610144575b600080fd5b34801561006657600080fd5b50610081600480360381019061007c9190610e7c565b610160565b005b34801561008f57600080fd5b50610098610335565b6040516100a5919061125a565b60405180910390f35b3480156100ba57600080fd5b506100c36105ec565b6040516100d091906112fc565b60405180910390f35b3480156100e557600080fd5b5061010060048036038101906100fb9190610dff565b6105f2565b005b34801561010e57600080fd5b5061012960048036038101906101249190610e53565b6107a2565b60405161013b96959493929190611363565b60405180910390f35b61015e60048036038101906101599190610e53565b6108b3565b005b81600080600083815260200190815260200160002090508060040160149054906101000a900460ff166101c8576040517f08c379a00000000000000000000000000000000000000000000000000000000081526004016101bf9061129c565b60405180910390fd5b3373ffffffffffffffffffffffffffffffffffffffff168160030160009054906101000a900473ffffffffffffffffffffffffffffffffffffffff1673ffffffffffffffffffffffffffffffffffffffff161461025a576040517f08c379a0000000000000000000000000000000000000000000000000000000008152600401610251906112dc565b60405180910390fd5b600080600086815260200190815260200160002090508060040160149054906101000a900460ff166102c1576040517f08c379a00000000000000000000000000000000000000000000000000000000081526004016102b89061129c565b60405180910390fd5b8381600201819055507f1508747c2acc2a38e6f96f37729315e8b5721eff65263d029221c0c86f660c3e8582600101868460030160009054906101000a900473ffffffffffffffffffffffffffffffffffffffff1660405161032694939291906113cb565b60405180910390a15050505050565b6060600060015467ffffffffffffffff81111561037b577f4e487b7100000000000000000000000000000000000000000000000000000000600052604160045260246000fd5b6040519080825280602002602001820160405280156103b457816020015b6103a1610c3b565b8152602001906001900390816103995790505b509050600080600190505b60015481116105e05760008082815260200190815260200160002060040160149054906101000a900460ff16156105cd576000808281526020019081526020016000206040518060c0016040529081600082015481526020016001820180546104279061161f565b80601f01602080910402602001604051908101604052809291908181526020018280546104539061161f565b80156104a05780601f10610475576101008083540402835291602001916104a0565b820191906000526020600020905b81548152906001019060200180831161048357829003601f168201915b50505050508152602001600282015481526020016003820160009054906101000a900473ffffffffffffffffffffffffffffffffffffffff1673ffffffffffffffffffffffffffffffffffffffff1673ffffffffffffffffffffffffffffffffffffffff1681526020016004820160009054906101000a900473ffffffffffffffffffffffffffffffffffffffff1673ffffffffffffffffffffffffffffffffffffffff1673ffffffffffffffffffffffffffffffffffffffff1681526020016004820160149054906101000a900460ff1615151515815250508383815181106105b3577f4e487b7100000000000000000000000000000000000000000000000000000000600052603260045260246000fd5b602002602001018190525081806105c990611651565b9250505b80806105d890611651565b9150506103bf565b50808252819250505090565b60015481565b6001600081548092919061060590611651565b91905055506040518060c0016040528060015481526020018381526020018281526020013373ffffffffffffffffffffffffffffffffffffffff168152602001600073ffffffffffffffffffffffffffffffffffffffff1681526020016001151581525060008060015481526020019081526020016000206000820151816000015560208201518160010190805190602001906106a3929190610c9f565b506040820151816002015560608201518160030160006101000a81548173ffffffffffffffffffffffffffffffffffffffff021916908373ffffffffffffffffffffffffffffffffffffffff16021790555060808201518160040160006101000a81548173ffffffffffffffffffffffffffffffffffffffff021916908373ffffffffffffffffffffffffffffffffffffffff16021790555060a08201518160040160146101000a81548160ff0219169083151502179055509050507f4f7f943ede3f118d52f137992d1d5e5f5723aac6037c6b8814b8432f44ed05a16001548383336040516107969493929190611317565b60405180910390a15050565b60006020528060005260406000206000915090508060000154908060010180546107cb9061161f565b80601f01602080910402602001604051908101604052809291908181526020018280546107f79061161f565b80156108445780601f1061081957610100808354040283529160200191610844565b820191906000526020600020905b81548152906001019060200180831161082757829003601f168201915b5050505050908060020154908060030160009054906101000a900473ffffffffffffffffffffffffffffffffffffffff16908060040160009054906101000a900473ffffffffffffffffffffffffffffffffffffffff16908060040160149054906101000a900460ff16905086565b600080600083815260200190815260200160002060000154141561090c576040517f08c379a00000000000000000000000000000000000000000000000000000000081526004016109039061129c565b60405180910390fd5b600073ffffffffffffffffffffffffffffffffffffffff1660008083815260200190815260200160002060040160009054906101000a900473ffffffffffffffffffffffffffffffffffffffff1673ffffffffffffffffffffffffffffffffffffffff16146109b0576040517f08c379a00000000000000000000000000000000000000000000000000000000081526004016109a7906112bc565b60405180910390fd5b600080828152602001908152602001600020600201543373ffffffffffffffffffffffffffffffffffffffff16311015610a1f576040517f08c379a0000000000000000000000000000000000000000000000000000000008152600401610a169061127c565b60405180910390fd5b3360008083815260200190815260200160002060040160006101000a81548173ffffffffffffffffffffffffffffffffffffffff021916908373ffffffffffffffffffffffffffffffffffffffff16021790555060008082815260200190815260200160002060030160009054906101000a900473ffffffffffffffffffffffffffffffffffffffff1673ffffffffffffffffffffffffffffffffffffffff166108fc600080848152602001908152602001600020600201549081150290604051600060405180830381858888f19350505050158015610b03573d6000803e3d6000fd5b507f965f5f1cabd4450617ef4e4fb57afed8a8b87544c5549305429c15706fc892cf816000808481526020019081526020016000206001016000808581526020019081526020016000206002015460008086815260200190815260200160002060030160009054906101000a900473ffffffffffffffffffffffffffffffffffffffff1633604051610b99959493929190611417565b60405180910390a1600080828152602001908152602001600020600080820160009055600182016000610bcc9190610d25565b60028201600090556003820160006101000a81549073ffffffffffffffffffffffffffffffffffffffff02191690556004820160006101000a81549073ffffffffffffffffffffffffffffffffffffffff02191690556004820160146101000a81549060ff0219169055505050565b6040518060c00160405280600081526020016060815260200160008152602001600073ffffffffffffffffffffffffffffffffffffffff168152602001600073ffffffffffffffffffffffffffffffffffffffff1681526020016000151581525090565b828054610cab9061161f565b90600052602060002090601f016020900481019282610ccd5760008555610d14565b82601f10610ce657805160ff1916838001178555610d14565b82800160010185558215610d14579182015b82811115610d13578251825591602001919060010190610cf8565b5b509050610d219190610d65565b5090565b508054610d319061161f565b6000825580601f10610d435750610d62565b601f016020900490600052602060002090810190610d619190610d65565b5b50565b5b80821115610d7e576000816000905550600101610d66565b5090565b6000610d95610d90846114a2565b611471565b905082815260208101848484011115610dad57600080fd5b610db88482856115dd565b509392505050565b600082601f830112610dd157600080fd5b8135610de1848260208601610d82565b91505092915050565b600081359050610df981611738565b92915050565b60008060408385031215610e1257600080fd5b600083013567ffffffffffffffff811115610e2c57600080fd5b610e3885828601610dc0565b9250506020610e4985828601610dea565b9150509250929050565b600060208284031215610e6557600080fd5b6000610e7384828501610dea565b91505092915050565b60008060408385031215610e8f57600080fd5b6000610e9d85828601610dea565b9250506020610eae85828601610dea565b9150509250929050565b6000610ec483836111b3565b905092915050565b610ed5816115a7565b82525050565b610ee48161155f565b82525050565b610ef38161155f565b82525050565b610f028161154d565b82525050565b6000610f13826114f7565b610f1d818561151a565b935083602082028501610f2f856114d2565b8060005b85811015610f6b5784840389528151610f4c8582610eb8565b9450610f578361150d565b925060208a01995050600181019050610f33565b50829750879550505050505092915050565b610f8681611571565b82525050565b610f9581611571565b82525050565b6000610fa682611502565b610fb0818561152b565b9350610fc08185602086016115ec565b610fc981611727565b840191505092915050565b6000610fdf82611502565b610fe9818561153c565b9350610ff98185602086016115ec565b61100281611727565b840191505092915050565b6000815461101a8161161f565b611024818661153c565b9450600182166000811461103f576001811461105157611084565b60ff1983168652602086019350611084565b61105a856114e2565b60005b8381101561107c5781548189015260018201915060208101905061105d565b808801955050505b50505092915050565b600061109a60148361153c565b91507f496e73756666696369656e742062616c616e63650000000000000000000000006000830152602082019050919050565b60006110da60138361153c565b91507f4974656d20646f6573206e6f74206578697374000000000000000000000000006000830152602082019050919050565b600061111a601a8361153c565b91507f4974656d2068617320616c7265616479206265656e20736f6c640000000000006000830152602082019050919050565b600061115a60248361153c565b91507f4f6e6c79207468652073656c6c65722063616e206d6f6469667920746869732060008301527f6974656d000000000000000000000000000000000000000000000000000000006020830152604082019050919050565b600060c0830160008301516111cb600086018261123c565b50602083015184820360208601526111e38282610f9b565b91505060408301516111f8604086018261123c565b50606083015161120b6060860182610edb565b50608083015161121e6080860182610edb565b5060a083015161123160a0860182610f7d565b508091505092915050565b6112458161159d565b82525050565b6112548161159d565b82525050565b600060208201905081810360008301526112748184610f08565b905092915050565b600060208201905081810360008301526112958161108d565b9050919050565b600060208201905081810360008301526112b5816110cd565b9050919050565b600060208201905081810360008301526112d58161110d565b9050919050565b600060208201905081810360008301526112f58161114d565b9050919050565b6000602082019050611311600083018461124b565b92915050565b600060808201905061132c600083018761124b565b818103602083015261133e8186610fd4565b905061134d604083018561124b565b61135a6060830184610ef9565b95945050505050565b600060c082019050611378600083018961124b565b818103602083015261138a8188610fd4565b9050611399604083018761124b565b6113a66060830186610eea565b6113b36080830185610eea565b6113c060a0830184610f8c565b979650505050505050565b60006080820190506113e0600083018761124b565b81810360208301526113f2818661100d565b9050611401604083018561124b565b61140e6060830184610ecc565b95945050505050565b600060a08201905061142c600083018861124b565b818103602083015261143e818761100d565b905061144d604083018661124b565b61145a6060830185610ecc565b6114676080830184610ef9565b9695505050505050565b6000604051905081810181811067ffffffffffffffff82111715611498576114976116f8565b5b8060405250919050565b600067ffffffffffffffff8211156114bd576114bc6116f8565b5b601f19601f8301169050602081019050919050565b6000819050602082019050919050565b60008190508160005260206000209050919050565b600081519050919050565b600081519050919050565b6000602082019050919050565b600082825260208201905092915050565b600082825260208201905092915050565b600082825260208201905092915050565b60006115588261157d565b9050919050565b600061156a8261157d565b9050919050565b60008115159050919050565b600073ffffffffffffffffffffffffffffffffffffffff82169050919050565b6000819050919050565b60006115b2826115b9565b9050919050565b60006115c4826115cb565b9050919050565b60006115d68261157d565b9050919050565b82818337600083830152505050565b60005b8381101561160a5780820151818401526020810190506115ef565b83811115611619576000848401525b50505050565b6000600282049050600182168061163757607f821691505b6020821081141561164b5761164a6116c9565b5b50919050565b600061165c8261159d565b91507fffffffffffffffffffffffffffffffffffffffffffffffffffffffffffffffff82141561168f5761168e61169a565b5b600182019050919050565b7f4e487b7100000000000000000000000000000000000000000000000000000000600052601160045260246000fd5b7f4e487b7100000000000000000000000000000000000000000000000000000000600052602260045260246000fd5b7f4e487b7100000000000000000000000000000000000000000000000000000000600052604160045260246000fd5b6000601f19601f8301169050919050565b6117418161159d565b811461174c57600080fd5b5056fea26469706673582212209614f01e2f6df3a38611a4d4fa9db7cb311e215eaf3fd599f141aedda1bcc07f64736f6c63430008000033",
  "linkReferences": {},
  "deployedLinkReferences": {}
}