{
  "_format": "hh-sol-artifact-1",
  "contractName": "FurnitureStore",
  "sourceName": "contracts/smart-contract.sol",
  "abi": [
    {
      "inputs": [],
      "stateMutability": "nonpayable",
      "type": "constructor"
    },
    {
      "anonymous": false,
      "inputs": [
        {
          "indexed": false,
          "internalType": "uint256",
          "name": "id",
          "type": "uint256"
        },
        {
          "indexed": false,
          "internalType": "string",
          "name": "name",
          "type": "string"
        },
        {
          "indexed": false,
          "internalType": "uint256",
          "name": "price",
          "type": "uint256"
        },
        {
          "indexed": false,
          "internalType": "address",
          "name": "seller",
          "type": "address"
        }
      ],
      "name": "ItemCreated",
      "type": "event"
    },
    {
      "anonymous": false,
      "inputs": [
        {
          "indexed": false,
          "internalType": "uint256",
          "name": "id",
          "type": "uint256"
        },
        {
          "indexed": false,
          "internalType": "string",
          "name": "name",
          "type": "string"
        },
        {
          "indexed": false,
          "internalType": "uint256",
          "name": "price",
          "type": "uint256"
        },
        {
          "indexed": false,
          "internalType": "address",
          "name": "seller",
          "type": "address"
        }
      ],
      "name": "ItemModified",
      "type": "event"
    },
    {
      "anonymous": false,
      "inputs": [
        {
          "indexed": false,
          "internalType": "uint256",
          "name": "id",
          "type": "uint256"
        },
        {
          "indexed": false,
          "internalType": "string",
          "name": "name",
          "type": "string"
        },
        {
          "indexed": false,
          "internalType": "uint256",
          "name": "price",
          "type": "uint256"
        },
        {
          "indexed": false,
          "internalType": "address",
          "name": "seller",
          "type": "address"
        },
        {
          "indexed": false,
          "internalType": "address",
          "name": "buyer",
          "type": "address"
        }
      ],
      "name": "ItemSold",
      "type": "event"
    },
    {
      "inputs": [
        {
          "internalType": "uint256",
          "name": "_id",
          "type": "uint256"
        }
      ],
      "name": "buyItem",
      "outputs": [],
      "stateMutability": "payable",
      "type": "function"
    },
    {
      "inputs": [
        {
          "internalType": "string",
          "name": "_name",
          "type": "string"
        },
        {
          "internalType": "uint256",
          "name": "_price",
          "type": "uint256"
        }
      ],
      "name": "createItem",
      "outputs": [],
      "stateMutability": "nonpayable",
      "type": "function"
    },
    {
      "inputs": [],
      "name": "getAllItems",
      "outputs": [
        {
          "components": [
            {
              "internalType": "uint256",
              "name": "id",
              "type": "uint256"
            },
            {
              "internalType": "string",
              "name": "name",
              "type": "string"
            },
            {
              "internalType": "uint256",
              "name": "price",
              "type": "uint256"
            },
            {
              "internalType": "address payable",
              "name": "seller",
              "type": "address"
            },
            {
              "internalType": "address payable",
              "name": "buyer",
              "type": "address"
            }
          ],
          "internalType": "struct FurnitureStore.Item[]",
          "name": "",
          "type": "tuple[]"
        }
      ],
      "stateMutability": "view",
      "type": "function"
    },
    {
      "inputs": [],
      "name": "itemCount",
      "outputs": [
        {
          "internalType": "uint256",
          "name": "",
          "type": "uint256"
        }
      ],
      "stateMutability": "view",
      "type": "function"
    },
    {
      "inputs": [
        {
          "internalType": "uint256",
          "name": "",
          "type": "uint256"
        }
      ],
      "name": "items",
      "outputs": [
        {
          "internalType": "uint256",
          "name": "id",
          "type": "uint256"
        },
        {
          "internalType": "string",
          "name": "name",
          "type": "string"
        },
        {
          "internalType": "uint256",
          "name": "price",
          "type": "uint256"
        },
        {
          "internalType": "address payable",
          "name": "seller",
          "type": "address"
        },
        {
          "internalType": "address payable",
          "name": "buyer",
          "type": "address"
        }
      ],
      "stateMutability": "view",
      "type": "function"
    },
    {
      "inputs": [
        {
          "internalType": "uint256",
          "name": "_id",
          "type": "uint256"
        },
        {
          "internalType": "uint256",
          "name": "price",
          "type": "uint256"
        }
      ],
      "name": "modifyItem",
      "outputs": [],
      "stateMutability": "nonpayable",
      "type": "function"
    }
  ],
  "bytecode": "0x608060405234801561001057600080fd5b50600060018190555061159d806100286000396000f3fe6080604052600436106100555760003560e01c80632e6788ef1461005a5780634ba1d6aa146100835780636bfb0d01146100ae5780638c551742146100d9578063bfb231d214610102578063e7fb74c714610143575b600080fd5b34801561006657600080fd5b50610081600480360381019061007c9190610cab565b61015f565b005b34801561008f57600080fd5b50610098610301565b6040516100a59190611058565b60405180910390f35b3480156100ba57600080fd5b506100c361056d565b6040516100d091906110fa565b60405180910390f35b3480156100e557600080fd5b5061010060048036038101906100fb9190610c2e565b610573565b005b34801561010e57600080fd5b5061012960048036038101906101249190610c82565b6106fa565b60405161013a959493929190611161565b60405180910390f35b61015d60048036038101906101589190610c82565b6107f8565b005b813373ffffffffffffffffffffffffffffffffffffffff1660008083815260200190815260200160002060030160009054906101000a900473ffffffffffffffffffffffffffffffffffffffff1673ffffffffffffffffffffffffffffffffffffffff1614610203576040517f08c379a00000000000000000000000000000000000000000000000000000000081526004016101fa906110ba565b60405180910390fd5b600080600085815260200190815260200160002060000154141561025c576040517f08c379a00000000000000000000000000000000000000000000000000000000081526004016102539061109a565b60405180910390fd5b81600080858152602001908152602001600020600201819055507f1508747c2acc2a38e6f96f37729315e8b5721eff65263d029221c0c86f660c3e836000808681526020019081526020016000206001018460008088815260200190815260200160002060030160009054906101000a900473ffffffffffffffffffffffffffffffffffffffff166040516102f494939291906111bb565b60405180910390a1505050565b6060600060015467ffffffffffffffff811115610347577f4e487b7100000000000000000000000000000000000000000000000000000000600052604160045260246000fd5b60405190808252806020026020018201604052801561038057816020015b61036d610ab3565b8152602001906001900390816103655790505b5090506000600190505b6001548111610565576000808281526020019081526020016000206040518060a0016040529081600082015481526020016001820180546103ca90611437565b80601f01602080910402602001604051908101604052809291908181526020018280546103f690611437565b80156104435780601f1061041857610100808354040283529160200191610443565b820191906000526020600020905b81548152906001019060200180831161042657829003601f168201915b50505050508152602001600282015481526020016003820160009054906101000a900473ffffffffffffffffffffffffffffffffffffffff1673ffffffffffffffffffffffffffffffffffffffff1673ffffffffffffffffffffffffffffffffffffffff1681526020016004820160009054906101000a900473ffffffffffffffffffffffffffffffffffffffff1673ffffffffffffffffffffffffffffffffffffffff1673ffffffffffffffffffffffffffffffffffffffff168152505082600183610510919061133d565b81518110610547577f4e487b7100000000000000000000000000000000000000000000000000000000600052603260045260246000fd5b6020026020010181905250808061055d90611469565b91505061038a565b508091505090565b60015481565b6001600081548092919061058690611469565b91905055506040518060a0016040528060015481526020018381526020018281526020013373ffffffffffffffffffffffffffffffffffffffff168152602001600073ffffffffffffffffffffffffffffffffffffffff16815250600080600154815260200190815260200160002060008201518160000155602082015181600101908051906020019061061b929190610b0e565b506040820151816002015560608201518160030160006101000a81548173ffffffffffffffffffffffffffffffffffffffff021916908373ffffffffffffffffffffffffffffffffffffffff16021790555060808201518160040160006101000a81548173ffffffffffffffffffffffffffffffffffffffff021916908373ffffffffffffffffffffffffffffffffffffffff1602179055509050507f4f7f943ede3f118d52f137992d1d5e5f5723aac6037c6b8814b8432f44ed05a16001548383336040516106ee9493929190611115565b60405180910390a15050565b600060205280600052604060002060009150905080600001549080600101805461072390611437565b80601f016020809104026020016040519081016040528092919081815260200182805461074f90611437565b801561079c5780601f106107715761010080835404028352916020019161079c565b820191906000526020600020905b81548152906001019060200180831161077f57829003601f168201915b5050505050908060020154908060030160009054906101000a900473ffffffffffffffffffffffffffffffffffffffff16908060040160009054906101000a900473ffffffffffffffffffffffffffffffffffffffff16905085565b60008060008381526020019081526020016000209050600081600001541415610856576040517f08c379a000000000000000000000000000000000000000000000000000000000815260040161084d9061109a565b60405180910390fd5b600073ffffffffffffffffffffffffffffffffffffffff168160040160009054906101000a900473ffffffffffffffffffffffffffffffffffffffff1673ffffffffffffffffffffffffffffffffffffffff16146108e9576040517f08c379a00000000000000000000000000000000000000000000000000000000081526004016108e0906110da565b60405180910390fd5b8060020154341015610930576040517f08c379a00000000000000000000000000000000000000000000000000000000081526004016109279061107a565b60405180910390fd5b8060030160009054906101000a900473ffffffffffffffffffffffffffffffffffffffff1673ffffffffffffffffffffffffffffffffffffffff166108fc82600201549081150290604051600060405180830381858888f1935050505015801561099e573d6000803e3d6000fd5b508060020154341115610a02573373ffffffffffffffffffffffffffffffffffffffff166108fc8260020154346109d5919061133d565b9081150290604051600060405180830381858888f19350505050158015610a00573d6000803e3d6000fd5b505b338160040160006101000a81548173ffffffffffffffffffffffffffffffffffffffff021916908373ffffffffffffffffffffffffffffffffffffffff1602179055507f965f5f1cabd4450617ef4e4fb57afed8a8b87544c5549305429c15706fc892cf828260010183600201548460030160009054906101000a900473ffffffffffffffffffffffffffffffffffffffff1633604051610aa7959493929190611207565b60405180910390a15050565b6040518060a00160405280600081526020016060815260200160008152602001600073ffffffffffffffffffffffffffffffffffffffff168152602001600073ffffffffffffffffffffffffffffffffffffffff1681525090565b828054610b1a90611437565b90600052602060002090601f016020900481019282610b3c5760008555610b83565b82601f10610b5557805160ff1916838001178555610b83565b82800160010185558215610b83579182015b82811115610b82578251825591602001919060010190610b67565b5b509050610b909190610b94565b5090565b5b80821115610bad576000816000905550600101610b95565b5090565b6000610bc4610bbf84611292565b611261565b905082815260208101848484011115610bdc57600080fd5b610be78482856113f5565b509392505050565b600082601f830112610c0057600080fd5b8135610c10848260208601610bb1565b91505092915050565b600081359050610c2881611550565b92915050565b60008060408385031215610c4157600080fd5b600083013567ffffffffffffffff811115610c5b57600080fd5b610c6785828601610bef565b9250506020610c7885828601610c19565b9150509250929050565b600060208284031215610c9457600080fd5b6000610ca284828501610c19565b91505092915050565b60008060408385031215610cbe57600080fd5b6000610ccc85828601610c19565b9250506020610cdd85828601610c19565b9150509250929050565b6000610cf38383610fc4565b905092915050565b610d04816113bf565b82525050565b610d1381611383565b82525050565b610d2281611383565b82525050565b610d3181611371565b82525050565b6000610d42826112e7565b610d4c818561130a565b935083602082028501610d5e856112c2565b8060005b85811015610d9a5784840389528151610d7b8582610ce7565b9450610d86836112fd565b925060208a01995050600181019050610d62565b50829750879550505050505092915050565b6000610db7826112f2565b610dc1818561131b565b9350610dd1818560208601611404565b610dda8161153f565b840191505092915050565b6000610df0826112f2565b610dfa818561132c565b9350610e0a818560208601611404565b610e138161153f565b840191505092915050565b60008154610e2b81611437565b610e35818661132c565b94506001821660008114610e505760018114610e6257610e95565b60ff1983168652602086019350610e95565b610e6b856112d2565b60005b83811015610e8d57815481890152600182019150602081019050610e6e565b808801955050505b50505092915050565b6000610eab60128361132c565b91507f496e73756666696369656e742066756e647300000000000000000000000000006000830152602082019050919050565b6000610eeb60138361132c565b91507f4974656d20646f6573206e6f74206578697374000000000000000000000000006000830152602082019050919050565b6000610f2b60248361132c565b91507f4f6e6c79207468652073656c6c65722063616e206d6f6469667920746869732060008301527f6974656d000000000000000000000000000000000000000000000000000000006020830152604082019050919050565b6000610f9160118361132c565b91507f4974656d20616c726561647920736f6c640000000000000000000000000000006000830152602082019050919050565b600060a083016000830151610fdc600086018261103a565b5060208301518482036020860152610ff48282610dac565b9150506040830151611009604086018261103a565b50606083015161101c6060860182610d0a565b50608083015161102f6080860182610d0a565b508091505092915050565b611043816113b5565b82525050565b611052816113b5565b82525050565b600060208201905081810360008301526110728184610d37565b905092915050565b6000602082019050818103600083015261109381610e9e565b9050919050565b600060208201905081810360008301526110b381610ede565b9050919050565b600060208201905081810360008301526110d381610f1e565b9050919050565b600060208201905081810360008301526110f381610f84565b9050919050565b600060208201905061110f6000830184611049565b92915050565b600060808201905061112a6000830187611049565b818103602083015261113c8186610de5565b905061114b6040830185611049565b6111586060830184610d28565b95945050505050565b600060a0820190506111766000830188611049565b81810360208301526111888187610de5565b90506111976040830186611049565b6111a46060830185610d19565b6111b16080830184610d19565b9695505050505050565b60006080820190506111d06000830187611049565b81810360208301526111e28186610e1e565b90506111f16040830185611049565b6111fe6060830184610cfb565b95945050505050565b600060a08201905061121c6000830188611049565b818103602083015261122e8187610e1e565b905061123d6040830186611049565b61124a6060830185610cfb565b6112576080830184610d28565b9695505050505050565b6000604051905081810181811067ffffffffffffffff8211171561128857611287611510565b5b8060405250919050565b600067ffffffffffffffff8211156112ad576112ac611510565b5b601f19601f8301169050602081019050919050565b6000819050602082019050919050565b60008190508160005260206000209050919050565b600081519050919050565b600081519050919050565b6000602082019050919050565b600082825260208201905092915050565b600082825260208201905092915050565b600082825260208201905092915050565b6000611348826113b5565b9150611353836113b5565b925082821015611366576113656114b2565b5b828203905092915050565b600061137c82611395565b9050919050565b600061138e82611395565b9050919050565b600073ffffffffffffffffffffffffffffffffffffffff82169050919050565b6000819050919050565b60006113ca826113d1565b9050919050565b60006113dc826113e3565b9050919050565b60006113ee82611395565b9050919050565b82818337600083830152505050565b60005b83811015611422578082015181840152602081019050611407565b83811115611431576000848401525b50505050565b6000600282049050600182168061144f57607f821691505b60208210811415611463576114626114e1565b5b50919050565b6000611474826113b5565b91507fffffffffffffffffffffffffffffffffffffffffffffffffffffffffffffffff8214156114a7576114a66114b2565b5b600182019050919050565b7f4e487b7100000000000000000000000000000000000000000000000000000000600052601160045260246000fd5b7f4e487b7100000000000000000000000000000000000000000000000000000000600052602260045260246000fd5b7f4e487b7100000000000000000000000000000000000000000000000000000000600052604160045260246000fd5b6000601f19601f8301169050919050565b611559816113b5565b811461156457600080fd5b5056fea2646970667358221220ed9c2546c989027f9241a581bc31583189c31e91fc5147f0416ce56680cb040064736f6c63430008000033",
  "linkReferences": {},
  "deployedLinkReferences": {}
}